:100000000C9491000C94B9000C94B9000C94B900B4
:100010000C94B9000C94B9000C94B9000C94B9007C
:100020000C94B9000C94B9000C944C030C94BE03CE
:100030000C94B9000C94B9000C94B9000C94B9005C
:100040000C94B9000C94B9000C94B9000C94B9004C
:100050000C94B9000C94B9000C94B9000C94EE0502
:100060000C94B9000C94B9000C94B9000C94B9002C
:100070000C94B9000C94B9000C94B9000C94B9001C
:100080000C94B9000C94B9000C94B9000C94B9000C
:100090000C94B9000C94B9000C94B9000C94B900FC
:1000A0000C94B9000C94B9000C94B900080B000230
:1000B0000202010009040000010202000005240000
:1000C0001001052401010104240206052406000193
:1000D0000705810310004009040100020A00000026
:1000E00007050202400000070583024000000403E8
:1000F000090412010002EF0201404F1B04920001AB
:1001000001020301537061726B46756E005370619A
:10011000726B46756E2050726F204D6963726F006E
:10012000380611241FBECFEFDAE0DEBFCDBF11E0ED
:10013000A0E0B1E0EAEFFDE002C005900D92A6322A
:10014000B107D9F721E0A6E2B1E001C01D92A539BF
:10015000B207E1F710E0C1E9D0E004C02197FE0149
:100160000E94F006C039D107C9F70E944D060C94D1
:10017000FB060C940000FC0180919401811103C0E6
:100180008FEF9FEF08959FB7F89482E08093E90086
:100190002091F20030E01216130614F421E030E052
:1001A0002115310559F0289884E6809393018091B8
:1001B000F10080838091F200882319F09FBFC9016C
:1001C00008958BE68093E800F9CF2FB7F89483E089
:1001D0008093E9009091E800892F807295FF04C018
:1001E0009091F20080E4891B2FBF0895CF92DF9297
:1001F000EF92FF920F931F93CF93DF936C017A01DD
:100200008B01C0E0D0E0CE15DF0589F0D8016D91FB
:100210008D01D601ED91FC910190F081E02DC60198
:100220000995892B11F47E0102C02196ECCFC701FC
:10023000DF91CF911F910F91FF90EF90DF90CF90C2
:10024000089580918B0181110DC082E08093870118
:1002500084E08093880110928A011092890181E0E4
:1002600080938B0187E891E00895CF93DF931F92ED
:10027000CDB7DEB76983DC01ED91FC910280F3819B
:10028000E02D41E050E0BE016F5F7F4F09950F9078
:10029000DF91CF91089583E08093E9008091F2008F
:1002A000882319F08AE38093E80008950E94E5000E
:1002B00090E00895CF93DF931F92CDB7DEB7FC0196
:1002C0008485958597FD05C02FEF3FEF35872487FF
:1002D0000BC0CE0101960E94BB00019719F48981E1
:1002E00090E002C08FEF9FEF0F90DF91CF910895C4
:1002F0000F931F93CF93DF931F92CDB7DEB78C017F
:10030000FC018485958597FF0EC0CE0101960E9461
:10031000BB00019719F4298130E002C02FEF3FEFB5
:10032000F80135872487F801848595850F90DF9142
:10033000CF911F910F910895FC018485958597FDBC
:100340000BC09FB7F89482E08093E9008091F2009F
:100350009FBF90E0019608959FB7F89482E0809344
:10036000E9008091F2009FBF90E00895089580E039
:1003700090E00895409131015091320120912F0178
:100380003091300142175307B4F49091E800957012
:10039000E1F39091E80092FD19C08093F100809103
:1003A00031019091320101968F739927892B19F4AD
:1003B0008EEF8093E8008091310190913201019697
:1003C000909332018093310181E0089580E0089597
:1003D000CF92DF92EF92FF920F931F93CF93DF9311
:1003E0001F92CDB7DEB7182F062FE42E862F880F69
:1003F0008E5F99830E94BA0183E00E94BA01F12EB8
:10040000C12E9981D92E8C2D8F19801798F4F60161
:10041000E7FE02C0849101C080810E94BA01182FBA
:1004200080E00E94BA018123FFEFCF1ADF0A811119
:10043000EACF01C081E00F90DF91CF911F910F9122
:10044000FF90EF90DF90CF900895DF92EF92FF92B0
:100450000F931F93CF93DF93D82E8A017B01E40E75
:10046000F51EEB01CE15DF0571F0D7FE03C0FE01CE
:10047000849101C088810E94BA0121968111F2CF36
:100480008FEF9FEF01C0C801DF91CF911F910F91B6
:10049000FF90EF90DF9008950F931F93CF93DF931A
:1004A0001F92CDB7DEB782E0898342E450E06CEA68
:1004B00070E080E80E9425020E942101DC01129672
:1004C0000D911C9113970115110569F0D801ED915B
:1004D000FC910280F381E02DBE016F5F7F4FC80168
:1004E000099597FF07C089810F90DF91CF911F91E8
:1004F0000F910895F80100851185E5CF615030F026
:100500002091F100FC0120830196F8CF289884E621
:100510008093930108953FB7F89480912B019091B7
:100520002C01A0912D01B0912E0126B5A89B05C0EC
:100530002F3F19F00196A11DB11D3FBFBA2FA92F62
:10054000982F8827820F911DA11DB11DBC01CD01DF
:1005500043E0660F771F881F991F4A95D1F70895CA
:10056000CF92DF92EF92FF920E948B026B017C018F
:100570000E948B02DC01CB018C199D09AE09BF09D9
:10058000883E9340A105B10598F3FF90EF90DF906E
:10059000CF9008958F929F92AF92BF92CF92DF92A9
:1005A000EF92FF920F931F93CF93DF936C015B0148
:1005B0007A0180910B01882309F456C0809194013F
:1005C000882309F451C08091360180FF05C08091D5
:1005D000E00082608093E000E70110E00AEF83E032
:1005E000882E9AE3992E2097B1F10E94E50081119F
:1005F00005C00150C9F10E94B002F5CF282F30E0AC
:10060000C217D3070CF48C2F4FB7F8948092E900EF
:100610009091E80095FF1DC0282F30E0C21BD30B3E
:10062000F501982F915020F081918093F100FACF3D
:10063000A20EB31E112319F09092E80009C0809118
:10064000E80085FD06C09092E80011E0209709F0CF
:1006500010E04FBFC8CF1111C8CF5D9884E68093DA
:1006600035011E141F0444F081E090E0F6019383ED
:10067000828380E090E001C0C701DF91CF911F919C
:100680000F91FF90EF90DF90CF90BF90AF909F9031
:100690008F9008950E94F6061F920F920FB60F9248
:1006A00011248F939F938091E1009091E100937FBB
:1006B0009093E10083FF0FC01092E90091E09093C6
:1006C000EB001092EC0092E39093ED0010929401F5
:1006D00098E09093F00082FF20C093E09093E900AF
:1006E0009091F200992319F09AE39093E800909189
:1006F0003501992339F0909135019150909335014E
:10070000992389F190919301992339F09091930164
:10071000915090939301992341F184FF10C08091EF
:10072000E2008E7E81608093E2008091E1008F7E06
:100730008093E100809136018E7E806111C080FF40
:1007400016C08091E2008E7E80618093E2008091ED
:10075000E1008E7E8093E100809136018E7E816083
:100760008093360104C05D9ACDCF289AD6CF9F9151
:100770008F910F900FBE0F901F9018951F920F92A0
:100780000FB60F921124CF92DF92EF92FF920F9348
:100790001F932F933F934F935F936F937F938F9309
:1007A0009F93AF93BF93EF93FF93CF93DF93CDB717
:1007B000DEB76C97DEBFCDBF1092E9008091E800F4
:1007C00083FFEDC168E0CE0145960E947E0282EF74
:1007D0008093E8008D8987FF05C09091E80090FF25
:1007E000FCCF03C09EEF9093E800982F907609F01D
:1007F000C6C09E892F89188D91110CC0803829F4AC
:10080000809134018093F10002C01092F1001092A7
:10081000F10048C1422F50E0512B913051F4811129
:1008200041C14130510509F03DC1809134018D7FB6
:100830000BC0933061F4811135C14130510509F08D
:1008400031C1809134018260809334012BC1953095
:1008500041F48091E80080FFFCCF20682093E30002
:1008600021C1963009F05FC0EB8CFC8C1092E9003E
:100870001092320110923101123091F51092300134
:1008800010922F010E944C0299E0BE016F5F7F4FD2
:10089000DB01E92F1D92EA95E9F799831A8391E02C
:1008A0009E8390EA98879AEF998720913101309141
:1008B0003201275F3F4F3C832B838D831092E900E9
:1008C0001092320110923101F0923001E0922F012A
:1008D00049E050E080E00E9425020E944C02E2C004
:1008E000F0923001E0922F010E942101DC0112966A
:1008F000ED90FC901397E114F10409F4C0C0D70106
:10090000ED91FC910480F581E02DBE016B5E7F4F7F
:10091000C7010995009719F00CF0C4C0C7C0F701D2
:10092000E084F184E8CF973009F4C0C0983021F416
:1009300081E08093F100B6C0993009F0B3C08370B4
:1009400009F0B4C0EDE0F1E081E021E036E3908110
:10095000992361F08093E9002093EB0091919093AB
:10096000EC003093ED008F5F873089F78EE780933E
:10097000EA001092EA008F898093940193C08B8DD6
:100980009C8D1092E90010923201109231019093E7
:10099000300180932F01898D811156C08E899D89E8
:1009A000913A59F4813209F081C047E050E064E0A7
:1009B00071E080E00E94250275C0913209F076C096
:1009C000833289F4888D90E0982F88272F89822B95
:1009D000A0E0B0E08093000190930101A093020198
:1009E000B09303015FC0803269F48091E80082FF18
:1009F000FCCF67E084E091E00E947E028BEF809361
:100A0000E80006C0823209F04DC08F8980930B0147
:100A100080913301882319F0EEEFFAE002C0E0E0A4
:100A2000F8E08091040190910501A0910601B09138
:100A30000701803B9440A105B10509F07BC080917E
:100A40000B0180FF93C076C00E942101DC01129649
:100A50000D911C9113970115110541F1D801ED91EC
:100A6000FC910190F081E02DBE016B5E7F4FC801CB
:100A70000995811117C0F80100851185ECCF11305F
:100A800009F44EC0133091F48F89882309F445C0CE
:100A9000823081F440E862E18DE091E00E94E8015B
:100AA000882321F08EEF8093E80079C081E2809363
:100AB000EB0075C0813029F440E868E084E091E003
:100AC000EDCF833099F70E942101DC011296ED9061
:100AD000FC9013978E010F5F1F4F6801E114F10422
:100AE00079F0D701ED91FC910680F781E02DB801F6
:100AF000C7010995080F111DF701E084F184EECFBD
:100B0000D8011C92F60101900020E9F73197BF014E
:100B10006C197D0940E0C601C1CF6EEE70E002C0E5
:100B200062EF70E06115710509F2FB01449150E03C
:100B300080E840CF0FB6F894A89580916000886156
:100B400080936000109260000FBEA895EE3F2AE0EF
:100B5000F20739F08091FE0A9091FF0A9183808319
:100B6000A1CF1092FF0A1092FE0A9CCFEE3F8AE0BE
:100B7000F80731F0808191819093FF0A8093FE0AFB
:100B800087E797E7918380839BE088E10FB6F8942D
:100B9000A895809360000FBE9093600083CF6C9601
:100BA0000FB6F894DEBF0FBECDBFDF91CF91FF919E
:100BB000EF91BF91AF919F918F917F916F915F91D5
:100BC0004F913F912F911F910F91FF90EF90DF90E8
:100BD000CF900F900FBE0F901F9018951F920F92FD
:100BE0000FB60F9211242F933F938F939F93AF9340
:100BF000BF938091270190912801A0912901B09184
:100C00002A013091260126E0230F2D3720F4029689
:100C1000A11DB11D05C029E8230F0396A11DB11D1B
:100C2000209326018093270190932801A093290106
:100C3000B0932A0180912B0190912C01A0912D015C
:100C4000B0912E010196A11DB11D80932B019093AF
:100C50002C01A0932D01B0932E01BF91AF919F91D4
:100C60008F913F912F910F900FBE0F901F9018956D
:100C7000E7E3F1E01382128288EE93E0A0E0B0E0B7
:100C800084839583A683B78387E191E091838083F2
:100C90008FEF9FEF958784870895789484B582605D
:100CA00084BD84B5816084BD85B5826085BD85B510
:100CB000816085BD80916E00816080936E0010928E
:100CC0008100809181008260809381008091810009
:100CD000816080938100809180008160809380009A
:100CE0008091910082608093910080919100816059
:100CF000809391008091900081608093900080911A
:100D0000C10084608093C1008091C10082608093A3
:100D1000C1008091C10081608093C1008091C300B7
:100D200081608093C3008091C00082608093C00086
:100D30008091C20081608093C20080917A008460BB
:100D400080937A0080917A00826080937A0080910B
:100D50007A008E7F80937A0080917A0080688093F9
:100D60007A00109294011092340110923601809111
:100D7000D70081608093D70080EA8093D80089B53E
:100D80008F7E89BD89B5826089BD09B400FEFDCF23
:100D90000E94B0028091D8008F7C80618093D8003F
:100DA0008091E000807F8093E0008091E1008E7E62
:100DB0008093E1008DE08093E200559A209AEEEF57
:100DC000FFE7859194918B3F9C4D19F481E08093CE
:100DD0003301C0E0D0E02097F1F30E940000FBCF88
:100DE000EE0FFF1F0590F491E02D099481E090E053
:0A0DF000F8940C94FB06F894FFCF72
:100DFA00FFFFFFFF00E100000000000000C180814A
:100E0A00000000000000003501CA0256014B019C97
:060E1A00015A01780100FD
:00000001FF
