:100000000C9452000C9464000C9464000C946400F2
:100010000C9464000C9464000C9464000C946400D0
:100020000C9464000C9464000C9464000C946400C0
:100030000C9464000C9464000C9464000C946400B0
:100040000C94B4000C9464000C9464000C94640050
:100050000C9464000C9464000C9464000C94640090
:100060000C9464000C946400010204081020408089
:1000700001020408102001020408102004040404F2
:100080000404040402020202020203030303030342
:1000900000000000250028002B00000000002400C4
:1000A00027002A0011241FBECFEFD8E0DEBFCDBF4E
:1000B00021E0A0E0B1E001C01D92A930B207E1F754
:1000C0000E94A7000C9439010C94000061E089E0C3
:1000D0000C946B000895CF93DF9390E0FC01E859F6
:1000E000FF4F2491FC01E458FF4F8491882361F174
:1000F00090E0880F991FFC01E656FF4FC591D491FF
:10010000FC01E057FF4FA591B491611109C09FB761
:10011000F8948881209582238883EC912E230BC04C
:10012000623061F49FB7F8943881822F80958323E1
:100130008883EC912E2B2C939FBF06C08FB7F89429
:10014000E8812E2B28838FBFDF91CF9108950E94E5
:10015000FE000E946600C0E0D0E00E946A00209786
:10016000E1F30E940000F9CF1F920F920FB60F9299
:1001700011242F933F938F939F93AF93BF938091BD
:10018000010190910201A0910301B091040130910D
:10019000000123E0230F2D3720F40196A11DB11D8E
:1001A00005C026E8230F0296A11DB11D2093000172
:1001B0008093010190930201A0930301B093040185
:1001C0008091050190910601A0910701B09108016D
:1001D0000196A11DB11D8093050190930601A09386
:1001E0000701B0930801BF91AF919F918F913F910B
:1001F0002F910F900FBE0F901F901895789484B593
:10020000826084BD84B5816084BD85B5826085BD12
:1002100085B5816085BDEEE6F0E0808181608083F8
:10022000E1E8F0E0108280818260808380818160DB
:100230008083E0E8F0E0808181608083E1EBF0E0A2
:10024000808184608083E0EBF0E080818160808346
:10025000EAE7F0E08081846080838081826080832F
:100260008081816080838081806880831092C1005A
:060270000895F894FFCF91
:00000001FF
