:100000000C945C000C946E000C946E000C946E00CA
:100010000C946E000C946E000C946E000C946E00A8
:100020000C946E000C946E000C946E000C946E0098
:100030000C946E000C946E000C946E000C946E0088
:100040000C941A010C946E000C946E000C946E00CB
:100050000C946E000C946E000C946E000C946E0068
:100060000C946E000C946E0000000007000201006A
:100070000003040600000000000000000102040864
:100080001020408001020408102001020408102002
:10009000040404040404040402020202020203032E
:1000A0000303030300000000250028002B000000CC
:1000B0000000240027002A0011241FBECFEFD8E043
:1000C000DEBFCDBF21E0A0E0B1E001C01D92A930AC
:1000D000B207E1F70E940D010C949F010C940000FF
:1000E00061E089E00C94A10061E089E00C94DD00FE
:1000F000833081F028F4813099F08230A1F00895A6
:100100008630A9F08730B9F08430D1F48091800036
:100110008F7D03C0809180008F7780938000089549
:1001200084B58F7702C084B58F7D84BD089580919A
:10013000B0008F7703C08091B0008F7D8093B000B6
:100140000895CF93DF9390E0FC01E458FF4F249192
:10015000FC01E057FF4F8491882361F190E0880F04
:10016000991FFC01E255FF4FC591D491FC01EC555C
:10017000FF4FA591B491611109C09FB7F894888190
:10018000209582238883EC912E230BC0623061F48A
:100190009FB7F8943881822F809583238883EC91D0
:1001A0002E2B2C939FBF06C08FB7F894E8812E2B7F
:1001B00028838FBFDF91CF9108951F93CF93DF9353
:1001C000282F30E0F901E859FF4F8491F901E458F4
:1001D000FF4FD491F901E057FF4FC491CC23C9F0F0
:1001E000162F81110E947800EC2FF0E0EE0FFF1F18
:1001F000EC55FF4FA591B4918FB7F894111105C03C
:100200009C91ED2FE095E92302C0EC91ED2BEC934E
:100210008FBFDF91CF911F9108950E9464010E94CA
:100220007000C0E0D0E00E9474002097E1F30E94CB
:100230000000F9CF1F920F920FB60F9211242F9347
:100240003F938F939F93AF93BF93809101019091C0
:100250000201A0910301B09104013091000123E05B
:10026000230F2D3720F40196A11DB11D05C026E8EE
:10027000230F0296A11DB11D20930001809301015F
:1002800090930201A0930301B093040180910501B2
:1002900090910601A0910701B09108010196A11D5E
:1002A000B11D8093050190930601A0930701B093BF
:1002B0000801BF91AF919F918F913F912F910F9026
:1002C0000FBE0F901F901895789484B5826084BDFE
:1002D00084B5816084BD85B5826085BD85B581604A
:1002E00085BDEEE6F0E0808181608083E1E8F0E0AA
:1002F0001082808182608083808181608083E0E8D9
:10030000F0E0808181608083E1EBF0E080818460B7
:100310008083E0EBF0E0808181608083EAE7F0E0B9
:10032000808184608083808182608083808181601D
:1003300080838081806880831092C1000895F89442
:02034000FFCFED
:00000001FF
