:100000000C9435000C945D000C945D000C945D0024
:100010000C945D000C945D000C945D000C945D00EC
:100020000C945D000C945D000C945D000C945D00DC
:100030000C945D000C945D000C945D000C945D00CC
:100040000C9494020C945D000C9453010C94960152
:100050000C945D000C945D000C945D000C945D00AC
:100060000C945D000C945D00590211241FBECFEF6B
:10007000D8E0DEBFCDBF11E0A0E0B1E0E6E8F6E0F9
:1000800002C005900D92AC31B107D9F721E0ACE187
:10009000B1E001C01D92AF3CB207E1F710E0C5E34B
:1000A000D0E004C02197FE010E943B03C433D10776
:1000B000C9F70E946D000C9441030C94000040E8C5
:1000C00055E260E070E08CE191E00C94D10160E0D9
:1000D00071E08CE191E00C94B7000E94DE020E9476
:1000E0005F00CDE8D1E00E9467002097E1F30E9415
:1000F0008D01F9CFCF92DF92EF92FF920F931F9372
:10010000CF93DF936C01EB017B01E40EF51E00E061
:1001100010E0CE15DF0561F06991D601ED91FC91FB
:100120000190F081E02DC6010995080F191FF1CF4C
:10013000C801DF91CF911F910F91FF90EF90DF9059
:10014000CF9008956115710579F0FB0101900020B1
:10015000E9F73197AF01461B570BDC01ED91FC919C
:100160000280F381E02D099480E090E008950C94E2
:10017000A200FC0124853585F901E05CFF4F8081F8
:100180009181329620813181821B930B8F73992745
:100190000895DC011C96ED91FC911D97DF01A05C98
:1001A000BF4F2D913C91119712968D919C91119773
:1001B0002817390739F08D919C91E80FF91F80813C
:1001C00090E008958FEF9FEF0895FC01A485B58519
:1001D000FD01E05CFF4F2081318132968081918169
:1001E0002817390779F080819181A80FB91F8C9168
:1001F000208131812F5F3F4F2F733327318320833D
:1002000090E008958FEF9FEF0895FC0181A188236E
:1002100029F0A489B5898C9186FFFBCF11A208959E
:100220000F931F93CF93DF93FC01A685B7858D01B4
:10023000005C1F4FE8018881998101968F7399278F
:10024000AD014E5B5F4FEA01288139818217930728
:10025000D1F3E80128813981A20FB31F6C93A685E1
:10026000B785A05CBF4F11969C938E93A689B789E2
:100270002C9181E090E0078C02C0880F991F0A94AE
:10028000E2F7822B8C9381E081A30488F589E02D2D
:1002900080818064808381E090E0DF91CF911F9125
:1002A0000F91089508951F920F920FB60F92112487
:1002B0002F934F935F938F939F93EF93FF9380912F
:1002C000C00082FD1CC02091C6008091C2019091A7
:1002D000C30101968F7399274091C4015091C501C4
:1002E0008417950771F0E091C201F091C301EE57B8
:1002F000FE4F20839093C3018093C20102C080917E
:10030000C600FF91EF919F918F915F914F912F9137
:100310000F900FBE0F901F9018958CE191E00E94F6
:10032000B900892B11F00C94520108951F920F927D
:100330000FB60F9211242F933F938F939F93EF93B8
:10034000FF9320917E0130917F01809180019091F7
:1003500081012817390731F48091C1008F7D809386
:10036000C10014C0E0918001F0918101E25CFE4F78
:100370002081809180019091810101968F7399274E
:1003800090938101809380012093C600FF91EF91AB
:100390009F918F913F912F910F900FBE0F901F90C3
:1003A0001895CF92DF92EF92FF920F931F93CF9306
:1003B000DF93EC016A017B014115514E6105710526
:1003C00009F1EC89FD8981E090E008A002C0880F66
:1003D000991F0A94E2F7808360E079E08DE390E072
:1003E000A70196010E94190389019A010150110980
:1003F000210931093695279517950795980101151B
:100400001041A8F0EC89FD89108260E874E88EE163
:1004100090E0A70196010E941903DA01C901019732
:10042000A109B109B695A795979587959C01E8898B
:10043000F9893083EA89FB89208319A2EE89FF8933
:10044000408181E090E09C010C8C02C0220F331FA0
:100450000A94E2F7242B2083EE89FF8940819C01D6
:100460000D8C02C0220F331F0A94E2F7242B208345
:10047000EE89FF8940819C010E8C02C0220F331F40
:100480000A94E2F7242B2083EE89FF8920810F8CC8
:1004900002C0880F991F0A94E2F780958223808317
:1004A000DF91CF911F910F91FF90EF90DF90CF9050
:1004B0000895ECE1F1E01382128288EE93E0A0E06F
:1004C000B0E084839583A683B78380E191E0918334
:1004D000808382E891E0958784878EE391E0978717
:1004E000868785EC90E0918B808B84EC90E0938BF9
:1004F000828B80EC90E0958B848B81EC90E0978BE5
:10050000868B82EC90E0918F808F86EC90E0938FC9
:10051000828F84E0848F83E0858F87E0868F85E0FB
:10052000878F81E080A308951F920F920FB60F92DC
:1005300011242F933F938F939F93AF93BF938091F9
:10054000C7019091C801A091C901B091CA01309131
:10055000C60123E0230F2D3720F40196A11DB11D04
:1005600005C026E8230F0296A11DB11D2093C601E8
:100570008093C7019093C801A093C901B093CA01A9
:100580008091CB019091CC01A091CD01B091CE0191
:100590000196A11DB11D8093CB019093CC01A09336
:1005A000CD01B093CE01BF91AF919F918F913F91BB
:1005B0002F910F900FBE0F901F901895789484B5CF
:1005C000826084BD84B5816084BD85B5826085BD4F
:1005D00085B5816085BDEEE6F0E080818160808335
:1005E000E1E8F0E010828081826080838081816018
:1005F0008083E0E8F0E0808181608083E1EBF0E0DF
:10060000808184608083E0EBF0E080818160808382
:10061000EAE7F0E08081846080838081826080836B
:100620008081816080838081806880831092C10096
:100630000895A1E21A2EAA1BBB1BFD010DC0AA1F23
:10064000BB1FEE1FFF1FA217B307E407F50720F03B
:10065000A21BB30BE40BF50B661F771F881F991FB6
:100660001A9469F760957095809590959B01AC01FF
:10067000BD01CF010895EE0FFF1F0590F491E02D0D
:060680000994F894FFCF7D
:1006860048656C6C6F20576F726C64000000000048
:0C06960010017A00B900E500C900050160
:00000001FF
